:020000040800F2
:10000000C00400209D01000821040008D703000857
:100010001D04000835020008F90A0008000000006D
:100020000000000000000000000000004906000879
:100030008502000800000000390400084908000893
:10004000B7010008B7010008B7010008B7010008B0
:10005000B7010008B7010008B7010008B7010008A0
:10006000B7010008B7010008B7010008B701000890
:10007000B7010008B7010008B7010008B701000880
:10008000B7010008B7010008B7010008B701000870
:10009000B7010008B7010008B7010008B701000860
:1000A000B7010008B7010008B7010008B701000850
:1000B000B7010008B7010008B7010008B701000840
:1000C000B7010008B7010008B7010008B701000830
:1000D000B7010008B7010008B7010008B701000820
:1000E000B7010008B7010008B7010008B701000810
:1000F000B7010008B7010008B7010008B701000800
:10010000B7010008B7010008B7010008B7010008EF
:10011000B7010008B7010008B7010008B7010008DF
:10012000B7010008B7010008B7010008B7010008CF
:10013000B7010008B7010008B7010008B7010008BF
:10014000B7010008B7010008B7010008B7010008AF
:10015000B7010008B7010008B7010008B70100089F
:10016000B7010008B7010008B7010008B70100088F
:10017000B7010008B7010008B7010008B70100087F
:10018000B7010008B7010008DFF80CD000F040F814
:1001900000480047490D0008C00400200648804779
:1001A00006480047FEE7FEE7FEE7FEE7FEE7FEE75C
:1001B000FEE7FEE7FEE7FEE71109000889010008F7
:1001C000D2B201E000F8012B491EFBD27047002299
:1001D000F6E710B513460A4604461946FFF7F0FF46
:1001E000204610BD30B50B460146002020220124D8
:1001F00009E021FA02F59D4205D303FA02F5491BF5
:1002000004FA02F52844151EA2F10102F1DC30BD0A
:10021000064C074D06E0E06840F0010394E8070053
:1002200098471034AC42F6D3FFF7B2FFF40D000844
:10023000140E000800BFFEE770B504460D461646D2
:100240002F210D48FFF7C3FF2F210C48FFF7BFFFF9
:100250002F210B48FFF7BBFF04F0010008B106484F
:10026000465504F0020008B10448465504F0040065
:1002700008B10348465570BD300000205F000020E3
:100280008E0000207047000030B513480068134A04
:10029000B0FBF2F1481EB0F1807F00D31BE0481E96
:1002A0004FF0E022506150170F22002807DA1307A1
:1002B0001D0E0B4B00F00F04241F1D5503E0130708
:1002C0001C0E084B1C5400BF00204FF0E022906130
:1002D0000720106100BF30BD0800002040420F0021
:1002E00018ED00E000E400E00349086000BF0249A7
:1002F00009680029FBD1704704000020F0B50A46C8
:1003000000210023002400BF3DE0012505FA01F390
:10031000156805EA03049C4234D105684F000326A2
:10032000BE40B543056015794E00B54006683543BB
:1003300005601579012D02D01579022D16D1856839
:100340004F000326BE40B543856055794E00B54049
:10035000866835438560456801268E40B543456013
:10036000456896798E40B6B235434560C5684F0002
:100370000326BE40B543C560D5794E00B540C6687A
:100380003543C560491C1029BFD3F0BDF0B500232B
:1003900000244D07ED0E02FA05F3CE1000F1200502
:1003A00055F826504E07F70E0F26BE40B543CF1026
:1003B00000F1200646F82750CE1000F1200555F830
:1003C000265045EA0304CE1000F1200545F82640EA
:1003D000F0BD4183704700BFFEE700001CB501215E
:1003E000202000F02BF801208DF8040000208DF86B
:1003F000060001208DF8070000208DF805004FF45D
:10040000C060009069460448FFF778FF4FF4C06170
:100410000148FFF7DEFF1CBD0014024000BFFEE7ED
:100420007047000002490143024A11607047000012
:100430000000FA050CED00E07047000029B1064A03
:1004400012680243044B1A6004E0034A12688243B4
:10045000014B1A60704700003038024029B1064A4B
:1004600012680243044B1A6004E0034A1268824394
:10047000014B1A607047000044380240F0B500217B
:1004800000220024022500260223324F3F6807F095
:100490000C0121B1042905D0082937D105E02E4FE0
:1004A000076036E02D4F076033E02A4F3F1F3F685B
:1004B000C7F38056274F3F1F3F6807F03F036EB1D9
:1004C000264FB7FBF3F7DFF88CC0ACF1040CDCF877
:1004D00000C0CCF3881C07FB0CF40CE01E4FB7FBEC
:1004E000F3F7DFF870C0ACF1040CDCF800C0CCF31B
:1004F000881C07FB0CF4174F3F1F3F68C7F30147E9
:100500007F1C7D00B4FBF5F7076002E0124F076027
:1005100000BF00BF0F4F3F6807F0F0010909104FFF
:100520007A5C0768D74047600A4F3F6807F4E0519C
:10053000890A0B4F7A5C4768D7408760054F3F6850
:1005400007F46041490B064F7A5C4768D740C760A3
:10055000F0BD0000083802400024F40000127A00C8
:100560001C00002010B5044B1A5D044B195D044BB0
:10057000185D00F06BF810BD8E0000205F000020B9
:100580003000002070B5054600240CE064222146AE
:100590002846FFF751FEFFF7E5FF4FF47A70FFF7AB
:1005A000A3FE601CC4B22F2CF0DB2F240DE0601ED4
:1005B000C1B264222846FFF73FFEFFF7D3FF4FF496
:1005C0007A70FFF791FE601EC4B2002CEFDC70BDA4
:1005D00010B5002211460F2000F066F81948FFF709
:1005E00083FE00220F21104600F05EF81548FFF749
:1005F0007BFE0F220021084600F056F81148FFF755
:1006000073FE0F221146104600F04EF80D48FFF71A
:100610006BFE00220F21084600F046F80948FFF75C
:1006200063FE0F221146002000F03EF80548FFF758
:100630005BFE0F220021104600F036F80148FFF75C
:1006400053FE10BD400D0300704700002DE9F0413E
:1006500006460F469046002400254FF480600E4960
:1006600048830120FFF740FE00BF0DE00B49085D05
:1006700000F040F80A49085D00F03CF80949085DBF
:1006800000F038F8601CC4B22F2CEFDB4FF4806010
:1006900001494883BDE8F08100100240300000208D
:1006A0005F0000208E0000202DE9F04107460C4637
:1006B00015460026B0464FF480600D49488301205E
:1006C000FFF712FE00BF0AE0384600F013F820469C
:1006D00000F010F8284600F00DF8701CC6B22F2E5E
:1006E000F2DB4FF4806002494883BDE8F0810000EE
:1006F0000010024070B504460120FFF7F5FD00250B
:1007000023E004F0800070B14FF480601249088348
:100710000120FFF7E9FD4FF480600F494883012075
:1007200000F0F6FA0DE04FF480600B4908830120D9
:1007300000F0EEFA4FF48060074948830120FFF78C
:10074000D3FD6006040E681CC5B2082DD9DB4FF43A
:1007500080600149488370BD001002400CB5002044
:10076000019000903448006840F4803032490860BD
:1007700000BF3148006800F4003000900198401C30
:100780000190009818B90198B0F5A04FF1D12A480E
:10079000006800F4003010B10120009001E000205A
:1007A00000900098012846D123484030006840F06E
:1007B00080502149403108602048006840F44040A2
:1007C0001E4908601C48083000681B490831086051
:1007D0000846006840F4004008600846006840F49D
:1007E000A05008601648091F0860081F006840F004
:1007F0008070091F086000BF0F48006800F000709B
:100800000028F9D040F205700E4908600A48083007
:10081000006820F0030008490831086008460068B5
:1008200040F00200086000BF03480830006800F094
:100830000C000828F8D10CBD0038024000700040C0
:1008400008544007003C024010B500F095F810BD78
:1008500070B500200022022300240221274D2D68BC
:1008600005F00C0020B1042806D0082834D107E098
:10087000234D244E356033E0234D224E35602FE06A
:100880001E4D2D1F2D68C5F380541C4D2D1F2D6846
:1008900005F03F0154B11C4DB5FBF1F5174E361F65
:1008A0003668C6F3881605FB06F209E0144DB5FB61
:1008B000F1F5124E361F3668C6F3881605FB06F2B0
:1008C0000E4D2D1F2D68C5F301456D1C6B00B2FB4D
:1008D000F3F50C4E356003E0094D0A4E356000BF5C
:1008E00000BF064D2D68C5F30315084E705D054D1C
:1008F0002D68C540034E356070BD000008380240C9
:100900000024F4000800002000127A000C000020EF
:1009100010B51548006840F470001349086013488A
:10092000006840F001001149086000200F490831BB
:1009300008600E4800680E4908400C4908600D48E0
:10094000091D0860081F006820F48020091F086046
:10095000002006490C310860FFF700FF4FF00060EF
:1009600001498039086010BD88ED00E00038024080
:10097000FFFFF6FE103000240448006820B1034851
:100980000068401E01490860704700000400002014
:1009900021B1828942F40052828104E082894DF6BD
:1009A000FF731A40828170471CB501210846FFF78A
:1009B00045FD02208DF8040000208DF8060001207E
:1009C0008DF8070000208DF805004FF400700090AE
:1009D00069460A48FFF792FC4FF480600090694630
:1009E0000648FFF78BFC072209210448FFF7CEFCDD
:1009F00007220A210148FFF7C9FC1CBD0000024084
:100A000002460020B1F5007F00D100BF13880B40E3
:100A10000BB1012000E00020704700002DE9FF47E6
:100A200005460E460024A14600BFA046B08900B18D
:100A300000BF2C8A24F44054F08804432C82AC89F3
:100A400041F20C608443B0883189084371890843BE
:100A50000443AC81AC8A24F44074B0890443AC8272
:100A60006846FFF70BFD2048854202D01F488542AB
:100A700002D1DDF80C9001E0DDF80890A88900F4BF
:100A8000004040B109EBC90000EB09103168490092
:100A9000B0FBF1F707E009EBC90000EB0910316882
:100AA0008900B0FBF1F76420B7FBF0F004012009E6
:100AB000642101FB1078A88900F4004040B1322085
:100AC00000EBC800B0FBF1F000F00700044308E0C1
:100AD000322000EB08106421B0FBF1F000F00F00B1
:100AE00004432C81BDE8FF87001001400014014041
:100AF000C1F308028280704700BFFEE71FB50121E5
:100B00001020FFF7ABFCFFF74FFF4FF4E1300090F0
:100B10000020ADF80400ADF80600ADF808000C2088
:100B2000ADF80A000020ADF80C0069460348FFF755
:100B300075FF01210148FFF72BFF1FBD0010014089
:100B40001CB501211020FFF779FC01208DF804006D
:100B500000208DF806008DF807008DF805004FF491
:100B60008060009069460448FFF7C8FB4FF480613D
:100B70000148FFF72EFC1CBD001002400FB4054BCE
:100B800010B503A9044A029800F018F810BC5DF8EB
:100B900014FB0000250D00082C00002002E008C80E
:100BA000121F08C1002AFAD170477047002001E0E7
:100BB00001C1121F002AFBD1704700002DE9FF4F31
:100BC00089B09B460446002506E025280BD05A46EE
:100BD0000B999047641C6D1C20780028F5D10DB04E
:100BE0002846BDE8F08F0027B8460122474900E0BB
:100BF000074314F8013F203B02FA03F00842F7D103
:100C000020782E2819D114F8010F47F004072A285C
:100C10000ED06FF02F022078A0F1300109290CD8F6
:100C200008EB880102EB410100EB0108641CF2E7CC
:100C30000A98641C50F8048B0A9020780028CED0C3
:100C4000642808D0692806D075281ED05A460B990A
:100C500090476D1C58E00A994FF00A0901C90A91A2
:100C6000002802DA40422D2102E0390504D52B216B
:100C70008DF82010012103E0F90704D02021F7E7C7
:100C80008A4608AE0DE00021FAE70A994FF00A09FA
:100C900001C90A91F7E74946FFF7A4FA303106F88F
:100CA000011D0028F7D1ADEB060000F120097807FF
:100CB00001D44FF00108C84502DDA8EB090000E0AF
:100CC00000208046002706E008A85A46C05D0B9920
:100CD00090476D1C7F1C5745F6DB04E030205A46D8
:100CE0000B9990476D1CB8F10001A8F10108F5DCE3
:100CF00005E016F8010B5A460B9990476D1CB9F1A7
:100D00000001A9F10109F4DC641C65E70928010070
:100D100003E000BF00BF00BF00BF011EA0F1010043
:100D2000F7D1704770B504460D46E1B20548FFF7AC
:100D3000DFFE00BF80210348FFF762FE0028F9D0E4
:100D4000204670BD0010014000BFFFF7E1FDFFF736
:100D50009BFAFFF743FBFFF7D1FEFFF7F1FE1CA064
:100D6000FFF70CFFFFF774FD4FF4A060FFF75AFB8D
:100D70002CE0FFF72DFCFFF72BFCFFF729FCFFF71A
:100D800027FC17480478E01704EB10700011A4EB5F
:100D9000001114A0FFF7F2FE11480078401C104922
:100DA00008700120FFF7EEFB0220FFF7EBFB0420A9
:100DB000FFF7E8FB0620FFF7E5FB0620FFF7E2FB65
:100DC0000320FFF7DFFB0520FFF7DCFBD1E7000086
:100DD00073797374656D2073746172742E0D0A00DB
:100DE00000000020636972637569743A25640D0A16
:100DF00000000000140E0008000000203000000079
:100E00009C0B0008440E00083000002090040000F5
:100E1000AC0B00080000000000000000007A030A8C
:100E2000000000000000000001020304060708099A
:100E30000000000001020304010203040607080980
:040E400000000000AE
:040000050800018965
:00000001FF
