:020000040800F2
:10000000880500209D0100087D06000833060008D1
:1000100079060008350200083D0C000800000000C9
:10002000000000000000000000000000C107000800
:10003000A504000800000000950600088D090008CE
:10004000B7010008B7010008B7010008B7010008B0
:10005000B7010008B7010008B7010008B7010008A0
:10006000B7010008B7010008B7010008B701000890
:10007000B7010008B7010008B7010008B701000880
:10008000B7010008B7010008B7010008B701000870
:10009000B7010008B7010008B7010008B701000860
:1000A000B7010008B7010008B7010008B701000850
:1000B000B7010008B7010008B7010008B701000840
:1000C000B7010008B7010008B7010008B701000830
:1000D000B7010008B7010008B7010008B701000820
:1000E000B7010008B7010008B7010008B701000810
:1000F000B7010008B7010008B7010008B701000800
:10010000B7010008B7010008B7010008B7010008EF
:10011000B7010008B7010008B7010008B7010008DF
:10012000B7010008B7010008B7010008B7010008CF
:10013000B7010008B7010008B7010008B7010008BF
:10014000B7010008B7010008B7010008B7010008AF
:10015000B7010008B7010008B7010008B70100089F
:10016000B7010008B7010008B7010008B70100088F
:10017000B7010008B7010008B7010008B70100087F
:10018000B7010008B7010008DFF80CD000F040F814
:10019000004800478D0E000888050020064880476B
:1001A00006480047FEE7FEE7FEE7FEE7FEE7FEE75C
:1001B000FEE7FEE7FEE7FEE7550A000889010008B2
:1001C000D2B201E000F8012B491EFBD27047002299
:1001D000F6E710B513460A4604461946FFF7F0FF46
:1001E000204610BD30B50B460146002020220124D8
:1001F00009E021FA02F59D4205D303FA02F5491BF5
:1002000004FA02F52844151EA2F10102F1DC30BD0A
:10021000064C074D06E0E06840F0010394E8070053
:1002200098471034AC42F6D3FFF7B2FFDC0E00085B
:10023000FC0E000800BFFEE770B505460C464021E5
:100240002048FFF7C4FF40211F48FFF7C0FF4021AF
:100250001E48FFF7BCFF1E4803781E4802781E4860
:1002600001781EA000F02CFD05F0010058B11548E2
:100270001949097800EB01101649097800EB810053
:1002800013490978445405F0020058B10E48124948
:10029000097800EB01100F49097800EB81000C4947
:1002A0000978445405F0040058B108480A4909780F
:1002B00000EB01100749097800EB81000449097837
:1002C000445470BDC1000020010100204101002004
:1002D0000A00002009000020080000207878785BE0
:1002E00025642025642025645D0D0A0070B5044650
:1002F0000D4640215148FFF76AFF40215048FFF763
:1003000066FF40214F48FFF762FF4F480078002802
:100310002ED14E4803784E4802784E4801784EA0C0
:1003200000F0CEFC29462046FFF786FF4E480078B5
:1003300070B948480078401C464908700846007863
:10034000032878D10120404908704749087070BDE2
:1003500040480078401E3F49087008460078002851
:1003600069D101203849087000203F490870EEE744
:100370003548007801282FD1344803783448027872
:100380003448017839A000F09BFC29462046FFF74D
:1003900053FF3A48007878B92D480078401C2C4922
:1003A000087008460078032845D1022026490870C5
:1003B000012032490870CAE725480078401E2449C8
:1003C000087008460078002835D102201E490870C0
:1003D00000202A490870BAE71C4803781C480278B4
:1003E0001C48017826A000F06BFC29462046FFF748
:1003F00023FF2748007878B914480078401C134937
:10040000087008460078032815D100200E490870AE
:1004100001201F4908709AE70C480078401E0B49DC
:1004200008700846007828B9002007490870184964
:1004300008708CE7FFE700BF89E70000C1000020DB
:100440000101002041010020070000200A000020D7
:1004500009000020080000207878785B25642025BA
:10046000642025645D0D0A00040000207979795B21
:1004700025642025642025645D0D0A000500002008
:100480007A7A7A5B25642025642025645D0D0A0054
:100490000600002010B564210120FFF727FF00F0BF
:1004A00091F910BD7047000030B513480068134A39
:1004B000B0FBF2F1481EB0F1807F00D31BE0481E74
:1004C0004FF0E022506150170F22002807DA13077F
:1004D0001D0E0B4B00F00F04241F1D5503E01307E6
:1004E0001C0E084B1C5400BF00204FF0E02290610E
:1004F0000720106100BF30BD0C00002040420F00FB
:1005000018ED00E000E400E00349086000BF024984
:1005100009680029FBD1704700000020002007492E
:1005200008700749087007490870074908700749AB
:1005300008700749087007490870704707000020D5
:1005400008000020090000200A000020060000200A
:100550000500002004000020F0B50A460021002319
:10056000002400BF3DE0012505FA01F3156805EA06
:1005700003049C4234D105684F000326BE40B543B6
:10058000056015794E00B54006683543056015795C
:10059000012D02D01579022D16D185684F00032652
:1005A000BE40B543856055794E00B54086683543F9
:1005B0008560456801268E40B5434560456896795B
:1005C0008E40B6B235434560C5684F000326BE4035
:1005D000B543C560D5794E00B540C6683543C560A2
:1005E000491C1029BFD3F0BDF0B5002300244D07EE
:1005F000ED0E02FA05F3CE1000F1200555F8265055
:100600004E07F70E0F26BE40B543CF1000F120066F
:1006100046F82750CE1000F1200555F8265045EA3F
:100620000304CE1000F1200545F82640F0BD4183BB
:10063000704700BFFEE700001CB50121202000F03C
:100640002BF801208DF8040000208DF80600012011
:100650008DF8070000208DF805004FF4C060009071
:1006600069460448FFF778FF4FF4C0610148FFF77F
:10067000DEFF1CBD0014024000BFFEE77047000013
:1006800002490143024A1160704700000000FA0568
:100690000CED00E07047000029B1064A12680243E1
:1006A000044B1A6004E0034A12688243014B1A604B
:1006B000704700003038024029B1064A12680243F0
:1006C000044B1A6004E0034A12688243014B1A602B
:1006D0007047000044380240F0B500210022002499
:1006E000022500260223324F3F6807F00C0121B19A
:1006F000042905D0082937D105E02E4F076036E0E0
:100700002D4F076033E02A4F3F1F3F68C7F38056E5
:10071000274F3F1F3F6807F03F036EB1264FB7FBDF
:10072000F3F7DFF88CC0ACF1040CDCF800C0CCF3BC
:10073000881C07FB0CF40CE01E4FB7FBF3F7DFF847
:1007400070C0ACF1040CDCF800C0CCF3881C07FBD3
:100750000CF4174F3F1F3F68C7F301477F1C7D0014
:10076000B4FBF5F7076002E0124F076000BF00BF5F
:100770000F4F3F6807F0F0010909104F7A5C0768D6
:10078000D74047600A4F3F6807F4E051890A0B4F92
:100790007A5C4768D7408760054F3F6807F460413F
:1007A000490B064F7A5C4768D740C760F0BD000030
:1007B000083802400024F40000127A0020000020D3
:1007C0007047000070B50025002600244FF48060BB
:1007D000154948830120FFF797FE0020064605468D
:1007E00000BF19E0114901EB051101EB8601085D1D
:1007F00000F022F80E4901EB051101EB8601085DBE
:1008000000F01AF80B4901EB051101EB8601085DB8
:1008100000F012F8601CC4B2042CE3DB4FF48060DB
:100820000149488370BD000000100240C100002053
:10083000010100204101002070B504460120FFF7AE
:1008400063FE002523E004F0800070B14FF4806067
:10085000124908830120FFF757FE4FF480600F49CB
:100860004883012000F0F6FA0DE04FF480600B4958
:100870000883012000F0EEFA4FF4806007494883B6
:100880000120FFF741FE6006040E681CC5B2082D6A
:10089000D9DB4FF480600149488370BD00100240ED
:1008A0000CB50020019000903448006840F480307E
:1008B0003249086000BF3148006800F40030009001
:1008C0000198401C0190009818B90198B0F5A04F0C
:1008D000F1D12A48006800F4003010B101200090E6
:1008E00001E0002000900098012846D123484030C4
:1008F000006840F08050214940310860204800687D
:1009000040F440401E4908601C48083000681B49FC
:10091000083108600846006840F400400860084656
:10092000006840F4A05008601648091F0860081FBE
:10093000006840F08070091F086000BF0F48006821
:1009400000F000700028F9D040F205700E490860F0
:100950000A480830006820F00300084908310860A0
:100960000846006840F00200086000BF03480830F5
:10097000006800F00C000828F8D10CBD00380240D7
:100980000070004008544007003C024010B500F0E1
:1009900095F810BD70B5002000220223002402212A
:1009A000274D2D6805F00C0020B1042806D008283A
:1009B00034D107E0234D244E356033E0234D224EE1
:1009C00035602FE01E4D2D1F2D68C5F380541C4D42
:1009D0002D1F2D6805F03F0154B11C4DB5FBF1F5FD
:1009E000174E361F3668C6F3881605FB06F209E077
:1009F000144DB5FBF1F5124E361F3668C6F3881656
:100A000005FB06F20E4D2D1F2D68C5F301456D1C2B
:100A10006B00B2FBF3F50C4E356003E0094D0A4E56
:100A2000356000BF00BF064D2D68C5F30315084EA5
:100A3000705D054D2D68C540034E356070BD0000EA
:100A4000083802400024F4000C00002000127A0054
:100A50001000002010B51548006840F470001349DC
:100A600008601348006840F0010011490860002048
:100A70000F49083108600E4800680E4908400C49CB
:100A800008600D48091D0860081F006820F48020D8
:100A9000091F0860002006490C310860FFF700FFBD
:100AA0004FF0006001498039086010BD88ED00E01A
:100AB00000380240FFFFF6FE1030002404480068B2
:100AC00020B103480068401E0149086070470000DB
:100AD0000000002021B1828942F40052828104E0AA
:100AE00082894DF6FF731A40828170471CB501213F
:100AF0000846FFF7D1FD02208DF8040000208DF894
:100B0000060001208DF8070000208DF805004FF445
:100B10000070009069460A48FFF71EFD4FF48060A0
:100B2000009069460648FFF717FD0722092104488F
:100B3000FFF75AFD07220A210148FFF755FD1CBDAA
:100B40000000024002460020B1F5007F00D100BF46
:100B500013880B400BB1012000E00020704700001B
:100B60002DE9FF4705460E460024A14600BFA046DA
:100B7000B08900B100BF2C8A24F44054F0880443AB
:100B80002C82AC8941F20C608443B08831890843DF
:100B9000718908430443AC81AC8A24F44074B08961
:100BA0000443AC826846FFF797FD2048854202D097
:100BB0001F48854202D1DDF80C9001E0DDF8089075
:100BC000A88900F4004040B109EBC90000EB09100E
:100BD00031684900B0FBF1F707E009EBC90000EB11
:100BE000091031688900B0FBF1F76420B7FBF0F021
:100BF00004012009642101FB1078A88900F4004059
:100C000040B1322000EBC800B0FBF1F000F007006B
:100C1000044308E0322000EB08106421B0FBF1F03F
:100C200000F00F0004432C81BDE8FF870010014055
:100C300000140140C1F308028280704700BFFEE744
:100C40001FB501211020FFF737FDFFF74FFF4FF4CD
:100C5000E13000900020ADF80400ADF80600ADF8DA
:100C600008000C20ADF80A000020ADF80C00694621
:100C70000348FFF775FF01210148FFF72BFF1FBD58
:100C8000001001401CB501211020FFF705FD0120D7
:100C90008DF8040000208DF806008DF807008DF80F
:100CA00005004FF48060009069460448FFF754FC4B
:100CB0004FF480610148FFF7BAFC1CBD00100240F0
:100CC0000FB4054B10B503A9044A029800F018F8B8
:100CD00010BC5DF814FB0000690E00083000002015
:100CE00002E008C8121F08C1002AFAD170477047F5
:100CF000002001E001C1121F002AFBD17047000053
:100D00002DE9FF4F89B09B460446002506E02528C3
:100D10000BD05A460B999047641C6D1C2078002814
:100D2000F5D10DB02846BDE8F08F0027B846012266
:100D3000474900E0074314F8013F203B02FA03F063
:100D40000842F7D120782E2819D114F8010F47F066
:100D500004072A280ED06FF02F022078A0F130016E
:100D600009290CD808EB880102EB410100EB0108CE
:100D7000641CF2E70A98641C50F8048B0A902078EF
:100D80000028CED0642808D0692806D075281ED047
:100D90005A460B9990476D1C58E00A994FF00A0982
:100DA00001C90A91002802DA40422D2102E03905EA
:100DB00004D52B218DF82010012103E0F90704D080
:100DC0002021F7E78A4608AE0DE00021FAE70A99EC
:100DD0004FF00A0901C90A91F7E74946FFF702FAFD
:100DE000303106F8011D0028F7D1ADEB060000F107
:100DF0002009780701D44FF00108C84502DDA8EBAF
:100E0000090000E000208046002706E008A85A46B6
:100E1000C05D0B9990476D1C7F1C5745F6DB04E0C5
:100E200030205A460B9990476D1CB8F10001A8F18B
:100E30000108F5DC05E016F8010B5A460B999047BE
:100E40006D1CB9F10001A9F10109F4DC641C65E72E
:100E50000928010003E000BF00BF00BF00BF011E62
:100E6000A0F10100F7D1704770B504460D46E1B21C
:100E70000548FFF7DFFE00BF80210348FFF762FE51
:100E80000028F9D0204670BD0010014000BFFFF7D8
:100E9000E1FDFFF709FBFFF7CFFBFFF7D1FEFFF7FF
:100EA000F1FE09A0FFF70CFFFFF774FD4FF4A060FF
:100EB000FFF7E6FBFFF732FB04E0FFF7EBFA06482B
:100EC000FFF722FBF9E7000073797374656D2073F7
:100ED000746172742E0D0A0020A10700FC0E000838
:100EE0000000002034000000E00C0008300F000873
:100EF0003400002054050000F00C00080000000041
:100F00000000000000000000007A030A000000005A
:100F100000000000010203040607080900000000A9
:100F2000010203040102030406070809000000008F
:040000050800018965
:00000001FF
